{
  "transactions": [
    {
      "hash": "0xc3d03c5cb58c3cf05e1919592f6d4a2fab46bd86bf44dbfa633fb1453ec83438",
      "transactionType": "CALL",
      "contractName": "MiningPoolFactoryCore",
      "contractAddress": "0xb87db5ff6802a8b0bd48fb314234916f1ba27c1a",
      "function": "deactivatePool(address)",
      "arguments": [
        "0x2f624C204B9d8C8Cd941C7dA6A113552eCdd4C12"
      ],
      "transaction": {
        "from": "0x5285b8c3c28e1c50d939ab3e1ebbc739b80ebf80",
        "to": "0xb87db5ff6802a8b0bd48fb314234916f1ba27c1a",
        "gas": "0x900e",
        "value": "0x0",
        "input": "0x65c051060000000000000000000000002f624c204b9d8c8cd941c7da6a113552ecdd4c12",
        "nonce": "0x8ae",
        "chainId": "0xaa36a7"
      },
      "additionalContracts": [],
      "isFixedGasLimit": false
    },
    {
      "hash": "0x93eb86434babaf9ac8b52e8e000f79456d849ce53088838eab998cb960dd0384",
      "transactionType": "CALL",
      "contractName": "MiningPoolFactoryCore",
      "contractAddress": "0xb87db5ff6802a8b0bd48fb314234916f1ba27c1a",
      "function": "deactivatePool(address)",
      "arguments": [
        "0x27F8DFE525Ac2B86c33d1de8103441ac86b955A7"
      ],
      "transaction": {
        "from": "0x5285b8c3c28e1c50d939ab3e1ebbc739b80ebf80",
        "to": "0xb87db5ff6802a8b0bd48fb314234916f1ba27c1a",
        "gas": "0x900e",
        "value": "0x0",
        "input": "0x65c0510600000000000000000000000027f8dfe525ac2b86c33d1de8103441ac86b955a7",
        "nonce": "0x8af",
        "chainId": "0xaa36a7"
      },
      "additionalContracts": [],
      "isFixedGasLimit": false
    }
  ],
  "receipts": [
    {
      "status": "0x1",
      "cumulativeGasUsed": "0xbaa403",
      "logs": [],
      "logsBloom": "0x00000000000000000000000000000000000000000000000000000000000000000000000000000000000000000000000000000000000000000000000000000000000000000000000000000000000000000000000000000000000000000000000000000000000000000000000000000000000000000000000000000000000000000000000000000000000000000000000000000000000000000000000000000000000000000000000000000000000000000000000000000000000000000000000000000000000000000000000000000000000000000000000000000000000000000000000000000000000000000000000000000000000000000000000000000000",
      "type": "0x2",
      "transactionHash": "0xc3d03c5cb58c3cf05e1919592f6d4a2fab46bd86bf44dbfa633fb1453ec83438",
      "transactionIndex": "0x49",
      "blockHash": "0xe3f24ef00c9cac8f2f23896b526f9b7177feed24f737a5cda1029a06a919e47e",
      "blockNumber": "0x8e6ea3",
      "gasUsed": "0x684c",
      "effectiveGasPrice": "0xf4255",
      "from": "0x5285b8c3c28e1c50d939ab3e1ebbc739b80ebf80",
      "to": "0xb87db5ff6802a8b0bd48fb314234916f1ba27c1a",
      "contractAddress": null
    },
    {
      "status": "0x1",
      "cumulativeGasUsed": "0xbb0c4f",
      "logs": [],
      "logsBloom": "0x00000000000000000000000000000000000000000000000000000000000000000000000000000000000000000000000000000000000000000000000000000000000000000000000000000000000000000000000000000000000000000000000000000000000000000000000000000000000000000000000000000000000000000000000000000000000000000000000000000000000000000000000000000000000000000000000000000000000000000000000000000000000000000000000000000000000000000000000000000000000000000000000000000000000000000000000000000000000000000000000000000000000000000000000000000000",
      "type": "0x2",
      "transactionHash": "0x93eb86434babaf9ac8b52e8e000f79456d849ce53088838eab998cb960dd0384",
      "transactionIndex": "0x4a",
      "blockHash": "0xe3f24ef00c9cac8f2f23896b526f9b7177feed24f737a5cda1029a06a919e47e",
      "blockNumber": "0x8e6ea3",
      "gasUsed": "0x684c",
      "effectiveGasPrice": "0xf4255",
      "from": "0x5285b8c3c28e1c50d939ab3e1ebbc739b80ebf80",
      "to": "0xb87db5ff6802a8b0bd48fb314234916f1ba27c1a",
      "contractAddress": null
    }
  ],
  "libraries": [],
  "pending": [],
  "returns": {},
  "timestamp": 1759500048841,
  "chain": 11155111,
  "commit": "cc882dc"
}